:020000040800F2
:10000000B806002089010008A30D0008BD0C0008F7
:10001000A10D00088B020008E90E00080000000096
:10002000000000000000000000000000CD0D0008EE
:100030008D02000800000000A50D0008CF0D00088B
:10004000A3010008A3010008A3010008A301000800
:10005000A3010008A3010008A3010008A3010008F0
:10006000A3010008A3010008A3010008A3010008E0
:10007000A3010008A3010008A3010008A3010008D0
:10008000A3010008A3010008A3010008A3010008C0
:10009000A3010008A3010008A3010008A3010008B0
:1000A000A3010008A3010008A3010008A3010008A0
:1000B000A3010008A3010008A3010008A301000890
:1000C000A3010008A3010008A3010008A301000880
:1000D000A3010008A3010008A3010008A301000870
:1000E0008F020008A3010008A301000800F002F835
:1000F00000F03AF80AA090E8000C82448344AAF188
:100100000107DA4501D100F02FF8AFF2090EBAE885
:100110000F0013F0010F18BFFB1A43F0010318473B
:10012000280E0000480E0000103A24BF78C878C19D
:10013000FAD8520724BF30C830C144BF04680C60ED
:10014000704700000023002400250026103A28BF35
:1001500078C1FBD8520728BF30C148BF0B60704739
:100160001FB51FBD10B510BD00F058F81146FFF7C0
:10017000F7FF00F0CBFE00F076F803B4FFF7F2FFD4
:1001800003BC00F07BF8000009488047094800479D
:10019000FEE7FEE7FEE7FEE7FEE7FEE7FEE7FEE737
:1001A000FEE7FEE704480549054A064B7047000094
:1001B0002F0E0008ED000008B8000020B80600204F
:1001C000B8020020B80200204FF0000200B513462C
:1001D00094469646203922BFA0E80C50A0E80C5067
:1001E000B1F12001BFF4F7AF090728BFA0E80C5018
:1001F00048BF0CC05DF804EB890028BF40F8042B11
:1002000008BF704748BF20F8022B11F0804F18BF7D
:1002100000F8012B7047704770477047754600F033
:1002200029F8AE4605006946534620F0070085468A
:1002300018B020B5FFF7B6FFBDE820404FF000062C
:100240004FF000074FF000084FF0000B21F00701BE
:10025000AC46ACE8C009ACE8C009ACE8C009ACE801
:10026000C0098D4670470446AFF300802046FFF773
:1002700084FF000000487047580000200149182002
:10028000ABBEFEE7260002007047FEE770474FF462
:10029000005000F01FB872B6FEE7000070B50446CB
:1002A00000F02CF90546601C02D004480078044494
:1002B00000F024F9401BA042FAD370BD04000020D6
:1002C000B0F5005F03D12021014800F007B9704765
:1002D0000008014010B504490A68024202D00860D3
:1002E000FFF7EEFF10BD0000140401402DE9F84FA8
:1002F00000240023DFF8C4914FF00F0809F1040A2D
:100300000AF1040B0BF1040ED1E00127A7403A409B
:10031000BA4275D1DFF8A8C14D68A5EB0C0665455A
:100320002BD00DDC032D34D005DC35B3012D19D0D5
:10033000022D2FD11BE0112D16D0122D2AD119E03C
:10034000B6F5881F19D006DCB6F5803F15D0B6F596
:10035000801F1FD111E0B6F5001F0ED0B6F5041FA7
:1003600018D10AE0CB6815E0CB681B1D12E0CB6802
:1003700008330FE0CB680C330CE08B6823B1012B02
:1003800004D00823476105E0042303E00823076144
:1003900000E00023FF2A01D8054601E000F1040532
:1003A00002D84FEA840603E0A4F108064FEA860665
:1003B0002F6808FA06FC27EA0C0703FA06F647EA54
:1003C00006072F604D68ED0070D53E4DAE6946F0D2
:1003D0000106AE61AD6905F0010500953A4D24F0C6
:1003E00003067719BE68A5072D0F08FA05FC26EA53
:1003F0000C06DFF8D8C0604503D14FF0000C17E0C1
:1004000054E0DFF8CCC0604502D14FF0010C0FE0A2
:10041000DFF8C0C0604502D14FF0020C08E0DFF801
:10042000B8C0604502D14FF0030C01E04FF0040C5E
:100430000CFA05FC4CEA060CC7F808C04D68ED0341
:1004400005D5D9F800501543C9F8005004E0D9F893
:1004500000509543C9F800504D68AD0305D5DAF852
:1004600000501543CAF8005004E0DAF800509543F4
:10047000CAF800504D68ED0205D5DBF80050154371
:10048000CBF8005004E0DBF800509543CBF8005067
:100490004D68AD0205D5DEF800501543CEF800508A
:1004A00004E0DEF800509543CEF80050641C0A6862
:1004B00032FA04F57FF429AFBDE8F88F000401405B
:1004C000000011100010024000000140000801402F
:1004D000000C01400010014000140140C26821EAF4
:1004E00002030A4043EA024101617047002A01D039
:1004F000016170470904016170470000014880688C
:10050000704700000400002002488168027811440E
:10051000816070470400002010B50748016841F071
:1005200010010160032000F077F80F2000F006F8BA
:1005300000F026F8002010BD0020024070B50446EF
:100540000D4D4FF47A712878B1FBF0F00B49096832
:10055000B1FBF0F000F03EFB08B1012070BD102CA3
:1005600007D200222146501E00F036F86C600020B1
:1005700070BD012070BD00000400002010000020AC
:1005800008B50C48816941F001018161816901F080
:1005900001010091C16941F08051C161C06900F061
:1005A000805000900449486820F0E06040F00070FE
:1005B000486008BD0010024000000140002809DB2F
:1005C00000F01F02012191404009800000F1E0206D
:1005D000C0F8001170470000F0B40D460D4B1B68C9
:1005E000C3F30223C3F10704042C00D90424191D0A
:1005F000072901D2002300E0DB1E012606FA04F1E0
:10060000491E294099409E40761E16403143F0BC59
:1006100000F06BBC0CED00E000F00701054A10682B
:100620004FF6FF03184040EA0120034908431060D9
:10063000704700000CED00E00000FA052DE9F047DE
:1006400004460D46002C17D0DFF83081D8F80000A2
:1006500000F00700A84211D2D8F8000020F00700EF
:100660002843C8F80000D8F8000000F00700A842AE
:1006700004D00120BDE8F0870120FBE72068404E50
:10068000810712D5400703D5706840F4E0607060C0
:100690002078000703D5706840F46050706070687F
:1006A000A16820F0F000084370602078C0072CD0CB
:1006B0006068012806D0022809D0316889070BD468
:1006C0000120D7E73168890306D40120D2E73168D9
:1006D000890101D40120CDE7716821F003010143B4
:1006E0007160FFF70BFF074641F2883906E0FFF71C
:1006F00005FFC01B484501D90320BBE7706861684E
:1007000000F00C00B0EB810FF1D1D8F8000000F040
:100710000700A8420ED9D8F8000020F007002843AF
:10072000C8F80000D8F8000000F00700A84201D087
:1007300001209FE72078400705D57068E16820F424
:10074000E060084370602078000706D57068216972
:1007500020F4605040EAC100706000F03FF871681A
:10076000084AC1F30311515CC840074908600748B3
:100770000068FFF7E3FE00207CE700000020024055
:1007800000100240300F0008100000200800002078
:1007900001480068704700001000002000B5FFF716
:1007A000F7FF04494968044AC1F30221515CC8407B
:1007B00000BD000000100240400F000800B5FFF728
:1007C000E7FF04494968044AC1F3C221515CC840AB
:1007D00000BD000000100240400F000885B014A0CA
:1007E00090E80E00C068CDE902230191049014A0A6
:1007F00000680090134B5968134801F00C02042A5A
:1008000010D0082A0ED101A8C1F38342805CC9032D
:100810000AD55968C1F340411DF801100A4A5043F6
:10082000B0FBF1F005B0704708494843FAE7000013
:1008300002030405060708090A0B0C0D0E0F101021
:10084000010200000010024000127A0000093D0081
:100850002DE9F84F0446002C0ED02078D94DC00762
:100860005ED06868C0F3810001280BD06868C0F3CF
:100870008100022803D00CE00120BDE8F88F6868F1
:10088000C00306D5286880034AD56068A8BB01204C
:10089000F3E76068B0F5803F11D0A8B1B0F5A02FA4
:1008A0001BD0286820F480302860286820F480203D
:1008B0002860606830B3FFF721FE06461EE0286816
:1008C00040F480302860F4E7286820F48030286005
:1008D000286820F480202860EBE7286840F4802016
:1008E0002860286840F480302860E2E7FFF706FEC1
:1008F000801B642802D90320BFE711E02868800329
:10090000F4D50DE0FFF7FAFD064606E0FFF7F6FD29
:10091000801B642801D90320AFE728688003F5D441
:100920002078DFF8A48280074FF0010A4FF0000919
:1009300045D5686810F00C0F07D06868C0F38100D7
:10094000022812D16868C0030FD42868800704D534
:100950002069012801D001208FE72868616920F013
:10096000F80040EAC100286029E02069B8B1C8F861
:1009700000A0FFF7C3FD064606E0FFF7BFFD801BA2
:10098000022801D9032078E728688007F5D5286870
:10099000616920F0F80040EAC10028600FE0C8F863
:1009A0000090FFF7ABFD064606E0FFF7A7FD801BB2
:1009B000022801D9032060E728688007F5D4207851
:1009C000000726D58148A16999B1C0F800A0FFF7BA
:1009D00095FD064606E0FFF791FD801B022801D930
:1009E00003204AE7686A8007F5D5012000F0DCF9AA
:1009F0000FE0C0F80090FFF781FD064606E0FFF724
:100A00007DFD801B022801D9032036E7686A800734
:100A1000F5D42078400773D50026E869C00008D4D3
:100A2000E86940F08050E861E86900F0805000908B
:100A30000126DFF89CB1DBF80000C00514D4DBF818
:100A4000000040F48070CBF80000FFF757FD074628
:100A500006E0FFF753FDC01B642801D903200CE713
:100A6000DBF80000C005F4D5E068012812D0B0B171
:100A700005281DD0286A20F001002862286A20F08D
:100A800004002862E06841F2883B28B3FFF736FD96
:100A900007461DE0286A40F001002862F2E7286A54
:100AA00020F001002862286A20F004002862E9E7AB
:100AB000286A40F004002862286A40F00100286299
:100AC000E0E7FFF71BFDC01B584501D90320D4E622
:100AD000286A8007F5D50DE0FFF710FD074606E010
:100AE000FFF70CFDC01B584501D90320C5E6286A55
:100AF0008007F5D4012E03D1E86920F08050E86129
:100B0000E069A0B36968C1F38101022946D00228D7
:100B100005D0C8F86090FFF7F1FC04463AE0C8F849
:100B20006090FFF7EBFC064606E0FFF7E7FC801B52
:100B3000022801D90320A0E628688001F5D4206AA4
:100B4000B0F5803F05D16868A16820F40030084303
:100B50006860D4E908010843696821F47411084306
:100B60006860C8F860A0FFF7C9FC044607E026E00B
:100B7000FFF7C4FC001B022801D903207DE628688A
:100B80008001F5D51BE0FFF7B9FC001B022801D955
:100B9000032072E628688001F5D410E001280CD00B
:100BA0006868226A00F48031914204D1616A00F4DD
:100BB0007010884203D001205FE601205DE600202E
:100BC0005BE6000000100240000042428004424206
:100BD0000070004010B5401EB0F1807F01D30120AD
:100BE00010BD4FF0E02460610F21601700F07DF927
:100BF0000020A06107202061002010BD70B50446D0
:100C0000002C04D094F83D00002510B106E001202E
:100C100070BD84F83C50204600F022F8242084F86F
:100C20003D002068C16821F40051C160204600F0F9
:100C3000FFF82068016921F4904101612068416951
:100C400021F02A0141612068C16841F40051C1606E
:100C50002564202084F83D0084F83E00002070BD0B
:100C600000B585B0002101910291039104910068C3
:100C70000F49884219D10F48C16941F40031C1615F
:100C8000C16901F400310091816941F00401816181
:100C9000806900F0040000900C2001900220029076
:100CA000049001A90448FFF721FB05B000BD000036
:100CB000004400400010024000080140FEE7000030
:100CC00070B586B0002402940394049405942248DD
:100CD000816941F010018161816901F01001019188
:100CE000816941F020018161816901F02001019158
:100CF000816941F004018161816901F00401019180
:100D0000816941F008018161806900F0080001906B
:100D1000124E002220213046FFF7E8FB71140291A9
:100D20000F4903910125049502A90E48FFF7DEFA49
:100D300020210291039504940220059002A93046D7
:100D4000FFF7D4FA002201212820FFF745FC2820D4
:100D5000FFF734FC06B070BD0010024000080140EF
:100D6000000021100010014010B50C480A49016034
:100D70004FF4E131416000218160C16001610C22CA
:100D800042618161C161FFF739FF002803D0BDE8EE
:100D90001040FFF780BA10BD00440040140000204E
:100DA000FEE7FEE77047000008B507494FF4FA5226
:100DB0000968B1FBF2F14143009100BF0098411E68
:100DC0000091FAD208BD0000100000207047FFF724
:100DD0009BBB30B58FB0282105A8FFF7F5F914218A
:100DE0006846FFF7F1F902250595012009901020CA
:100DF0000A900C9500240D944FF460100E9005A8F5
:100E0000FFF726FD08B1FFF746FA0F200090019585
:100E100002944FF480600390049402216846FFF727
:100E20000DFC002801D0FFF736FA0FB030BD704737
:100E300070B5044620680169E26821F4405111430D
:100E40000161A16820690143606901432068C268AB
:100E500041F20C639A430A43C26020684169A26967
:100E600021F44071114341611E492068884202D13A
:100E7000FFF7A4FC01E0FFF791FC00EBC00101EBE0
:100E80000010616864228900B0FBF1F3B3FBF2F358
:100E90006FF018067343B0FBF1F5B0FBF1F605EB0C
:100EA0008305322303EB0515B5FBF2F5B6FBF2F62D
:100EB00005F0F00505EB0615B0FBF1F6B0FBF1F01F
:100EC000B0FBF2F06FF01801484306EB800003EB33
:100ED0000010B0FBF2F0216800F00F002844886099
:100EE00070BD000000380140FEE70907090E002828
:100EF00004DB00F1E02080F80014704700F00F00E0
:100F000000F1E02080F8141D70470000FFF704FB9B
:100F1000FFF75FFFFFF7D4FEFFF726FF034C2068C3
:100F2000401C20606420FFF7B9F9F8E700000020BA
:100F30000000000000000000010203040607080989
:100F40000000000001020304680F000800000020F8
:100F500014000000280100087C0F00081400002085
:100F6000A406000044010008000000000100000089
:0C0F700010000000000000000024F4004D
:040000050800018965
:00000001FF
