:020000040800F2
:10000000F004002001010008D90200087302000872
:10001000D50200084901000883070008000000001D
:10002000000000000000000000000000A503000820
:100030004D0100080000000061030008B904000839
:100040001B0100081B0100081B0100081B01000820
:100050001B0100081B0100081B0100081B01000810
:100060001B0100081B0100081B0100081B01000800
:100070001B0100081B0100081B0100081B010008F0
:100080001B0100081B0100081B0100081B010008E0
:100090001B0100081B0100081B0100081B010008D0
:1000A0001B0100081B0100081B0100081B010008C0
:1000B0001D0500081B0100081B0100081B010008AA
:1000C0001B0100081B0100081B0100081B010008A0
:1000D0001B0100089D0600081B0100081B01000809
:1000E0001B0100081B0100081B010008DFF80CD0F1
:1000F00000F018F800480047E9070008F004002065
:100100000648804706480047FEE7FEE7FEE7FEE7B1
:10011000FEE7FEE7FEE7FEE7FEE7FEE7BD040008B8
:10012000ED000008064C074D06E0E06840F00103D2
:1001300094E8070098471034AC42F6D3FFF7DAFF93
:10014000200800084008000800BFFEE770472DE9BE
:10015000F04102460025002600200023002400274D
:1001600091F803C00CF00F0591F803C00CF0100CCF
:10017000BCF1000F03D091F802C04CEA050591F8DC
:1001800000C0BCF1000F31D0146800202BE04FF00C
:10019000010C0CFA00F3B1F800C00CEA03069E4211
:1001A00020D183004FF00F0C0CFA03F7BC4305FA83
:1001B00003FC4CEA040491F803C0BCF1280F06D1FB
:1001C0004FF0010C0CFA00FCC2F814C00AE091F8E0
:1001D00003C0BCF1480F05D14FF0010C0CFA00FC34
:1001E000C2F810C0401C0828D1D31460B1F800C078
:1001F000BCF1FF0F34DD546800202EE000F1080C44
:100200004FF0010808FA0CF3B1F800C00CEA03063D
:100210009E4221D183004FF00F0C0CFA03F7BC4330
:1002200005FA03FC4CEA040491F803C0BCF1280F62
:1002300005D100F1080C08FA0CF8C2F8148091F806
:1002400003C0BCF1480F07D100F1080C4FF00108C2
:1002500008FA0CF8C2F81080401C0828CED354606D
:10026000BDE8F081016170470AB1016100E04161C0
:10027000704700BFFEE7000008B50121102000F024
:1002800081F84FF40050ADF8000048208DF80300CD
:1002900069460248FFF75BFF08BD000000100140FF
:1002A00008B50121042000F06DF82020ADF8000011
:1002B00010208DF8030003208DF8020069460448E1
:1002C000FFF745FF20210248FFF7CCFF08BD0000E3
:1002D0000008014000BFFEE77047000070B5002134
:1002E00000230F22C47804B3154C246804F4E0649E
:1002F000C4F5E064210AC1F10403CA40447804FA59
:1003000003F184781440214309010E4C0678A1556D
:10031000047804F01F050124AC4005786D11AD0090
:1003200005F1E025C5F8004109E0047804F01F0557
:100330000124AC40044D0678761145F8264070BD86
:100340000CED00E000E400E080E100E00249014340
:10035000024A1160704700000000FA050CED00E051
:100360007047000029B1064AD2690243044BDA61A2
:1003700004E0034AD2698243014BDA61704700000E
:100380000010024029B1064A92690243044B9A6167
:1003900004E0034A92698243014B9A61704700006E
:1003A00000100240704710B500F002F810BD0000C8
:1003B0000CB50020019000903348006840F4803074
:1003C0003149086000BF3048006800F400300090F8
:1003D0000198401C0190009818B90198B0F5A06FE1
:1003E000F1D12948006800F4003010B101200090DC
:1003F00001E0002000900098012843D123480068C4
:1004000040F01000214908600846006820F0030011
:1004100008600846006840F0020008601A4840681A
:10042000194948600846406848600846406840F4FA
:10043000806048600846406820F47C1048600846A8
:10044000406840F4E81048600846006840F080705A
:10045000086000BF0C48006800F000700028F9D068
:100460000948406820F00300074948600846406892
:1004700040F00200486000BF0348406800F00C00F4
:100480000828F9D10CBD00000010024000200240F5
:10049000042808D14FF0E021096941F004014FF030
:1004A000E022116107E04FF0E021096921F0040129
:1004B0004FF0E022116170477047000010B51348FB
:1004C000006840F001001149086008464068104982
:1004D00008400E494860084600680E4908400B492C
:1004E00008600846006820F48020086008464068DC
:1004F00020F4FE0048604FF41F008860FFF753FFB0
:100500004FF000600449086010BD00000010024078
:100510000000FFF8FFFFF6FE08ED00E010B5012136
:10052000880700F04EF801280BD10648008808B96A
:10053000012000E00020034908800121880700F025
:1005400031F810BD020000207FB504460D46ADF81D
:100550000450ADF808400020ADF80600ADF80A00E0
:1005600001210846FFF7FEFE01A94FF0804000F090
:1005700043F801221146900700F034F81C208DF852
:10058000000001208DF8030000208DF801000320F9
:100590008DF802006846FFF7A1FE0121880700F0F0
:1005A00004F87FBDCA430282704721B1028842F03D
:1005B0000102028004E002884FF6FE731A400280B6
:1005C000704730B50246002000230024158A05EA52
:1005D0000103958905EA010413B10CB1012000E083
:1005E000002030BD1AB183890B43838102E08389E7
:1005F0008B43838170470000002202881D4B984284
:100600000ED01D4B98420BD0B0F1804F08D01B4B41
:10061000984205D01A4B984202D01A4B984204D106
:100620004FF68F731A404B881A43174B984207D0E6
:10063000164B984204D04FF6FF431A40CB881A431A
:1006400002808B8883850B8803850A4B98420BD0E8
:10065000094B984208D00E4B984205D00D4B98425A
:1006600002D00D4B984201D10B7A0386012383827D
:1006700070470000002C014000340140000400409D
:1006800000080040000C0040001000400014004032
:1006900000400140004401400048014010B540F2D4
:1006A00025511D4800F03EF810B31B4800F064F8D7
:1006B000C4B21A48008800F40040C8B9174800883E
:1006C00000F4804060B10A2C03D000201349088058
:1006D00020E01248008840F400401049088019E0EA
:1006E0000D2C06D10D48008840F480400B4908804D
:1006F00010E00A480088C0F30D0009490C5407486F
:100700000088401C0549088008460088C72801DD8C
:100710000020088010BD00000038014020000020AB
:100720002400002070B5024600240023002500208C
:1007300040F66A16B14200D100BFC1F3421501F084
:100740001F03012606FA03F3012D02D196893340D7
:1007500006E0022D02D1168A334001E0968A33402A
:100760000C12012606FA04F41688344013B10CB1B9
:10077000012000E0002070BD01468888C0F3080019
:10078000704700BFFEE702E008C8121F08C1002A38
:10079000FAD170477047002001E001C1121F002A02
:1007A000FBD1704710B56FF00400FFF771FE0A48E7
:1007B00000680A49B0FBF1F0094908700846007862
:1007C00000EB4001C1EBC0104FF6FF7101EAC00021
:1007D0000449088010BD00000400002000127A00C7
:1007E000180000201A000020FFF75AFDFFF744FD13
:1007F000FFF7D8FF4FF4A060FFF7A8FD41F61F41B7
:1008000042F20F70FFF7A0FE05E0034802782021B6
:100810000248FFF729FDF8E7020000200008014028
:10082000400800080000002024000000860700089F
:100830006408000824000020CC040000960700088B
:100840000000000000A24A040000000000000000B8
:100850000102030406070809000000000000000070
:040860000000000094
:04000005080000ED02
:00000001FF
