:020000040800F2
:100000008805002045010008A3190008851500088F
:10001000A1190008B1010008D11E0008000000006D
:10002000000000000000000000000000A719000808
:10003000B301000800000000A5190008A919000874
:100040005F0100085F0100085F0100085F01000810
:100050005F0100085F010008B50100085F010008AA
:10006000BB010008C1010008C70100085F010008CA
:100070005F0100085F0100085F0100085F010008E0
:100080005F0100085F0100085F0100085F010008D0
:100090005F0100085F0100085F0100085F010008C0
:1000A0005F010008151A00085F0100085F010008E1
:1000B0005F0100085F010008211A00085F010008C5
:1000C0005F0100085F0100085F0100085F01000890
:1000D0005F010008B91E0008C51E00085F01000886
:1000E0005F0100085F0100085F0100085F01000870
:1000F0005F0100085F0100085F0100085F01000860
:100100005F0100085F0100085F0100085F0100084F
:100110005F0100085F0100085F0100085F0100083F
:100120005F0100085F0100085F0100085F0100082F
:10013000DFF80CD000F02AF8004800475D1F0008E7
:10014000880500200648804706480047FEE7FEE78E
:10015000FEE7FEE7FEE7FEE7FEE7FEE7FEE7FEE777
:10016000111A000831010008D2B201E000F8012B99
:10017000491EFBD270470022F6E710B513460A4627
:1001800004461946FFF7F0FF204610BD064C074D08
:1001900006E0E06840F0010394E807009847103457
:1001A000AC42F6D3FFF7C8FFF81F0008182000087C
:1001B000FEE77047012000F0DBB8042000F0D8B85B
:1001C000082000F0D5B8102000F0D2B872B6FEE7D3
:1001D00010B590F821100022022905D00421816376
:1001E00080F82020012010BD01680B6823F00E0369
:1001F0000B6001680B6823F001030B6090F840303E
:10020000C46B012101FA03F3636080F8211080F8C8
:100210002020104610BD00002DE9F05F90F821105D
:100220000024022903D004218163012485E00168B0
:100230000A6822F00E020A6001680A6822F00102D0
:100240000A603F4E3E4FB215DFF8F4C0DFF8F09081
:10025000DFF8ECA0DFF8E8B0DFF8E4E00168783F11
:1002600013011502ACF1640CA9F15009AAF13C0A82
:10027000ABF1280BAEF1140E4FF48018B14227D920
:10028000B9420ED0614512D049451DD0514518D014
:10029000594518D0714501D1424615E0294EB14269
:1002A00001D1012210E0274E1436B14201D11022B3
:1002B0000AE0244E2836B14206D0224A3C3291420E
:1002C00001D11A4600E02A461E49091F0A602BE0A8
:1002D000B94213D0614517D0494522D051451DD0B0
:1002E00059451DD0714501D142461AE0B14202D1B3
:1002F0004FF0807215E0134EB14201D1012210E09F
:10030000104E1436B14201D110220AE00D4E2836AB
:10031000B14206D00B4A3C32914201D11A4600E06C
:100320002A46074980394A60012180F821100021BE
:1003300080F82010416B01B188472046BDE8F09F4E
:10034000800002400804024070B5044600F022F923
:100350000546601C02D004480078044400F01AF9F5
:10036000401BA042FAD370BD04000020704700007B
:10037000044910B50A68024202D00860FFF7F6FF90
:1003800010BD0000140401402DE9F84FDFF8C891BA
:10039000002409F1040A0AF1040B23460F270BF18C
:1003A000040ED1E00125A54006EA0502AA4276D155
:1003B000DFF8A8C14E68A6EB0C0866452BD00DDC13
:1003C000032E34D005DC36B3012E19D0022E2FD1E6
:1003D0001BE0112E16D0122E2AD119E0B8F5881F75
:1003E00019D006DCB8F5803F15D0B8F5801F1FD1B5
:1003F00011E0B8F5001F0ED0B8F5041F18D10AE0BF
:10040000CB6815E0CB681B1D12E0CB6808330FE00A
:10041000CB680C330CE08B682BB1012B4FF0080339
:1004200003D0456104E0042302E0056100E00023FD
:10043000FF2A01D8064601E000F104064FEA8405D0
:1004400001D9A5F12005D6F8008007FA05FC28EAB5
:100450000C0803FA05F548EA0508C6F800804D685F
:10046000ED0070D53E4DAE6946F00106AE61AD6956
:1004700024F0030605F0010500953A4D06EB050C46
:10048000DCF80850A607360F07FA06F825EA080533
:10049000DFF8D480404503D14FF0000825E052E05A
:1004A000DFF8C880404502D14FF001081DE0DFF8B9
:1004B000C080404502D14FF0020816E0DFF8B4805A
:1004C000404502D14FF003080FE0DFF8AC80404513
:1004D00002D14FF0040808E0DFF8A080404502D1C7
:1004E0004FF0050801E04FF0060808FA06F848EA60
:1004F0000508CCF808804D68D9F80060ED034D463A
:1005000001D5164300E096432E604D68DAF800608E
:10051000AD03554601D5164300E096432E604D6865
:10052000DBF80060ED025D4601D5164300E096431E
:100530002E604D68DEF80060AD02754601D51643A9
:1005400000E096432E60641C0A681646E2407FF481
:1005500029AFBDE8F88F0000000401400000111031
:10056000001002400000014000080140000C014062
:10057000001001400014014000180140001C01401F
:100580008068084000D0012070470AB101617047BF
:100590000904FBE701488068704700000400002060
:1005A00070B5040011D021684CF6CC400860216879
:1005B00045F255500860D4E9000141602168A06807
:1005C0008860FFF7E7FF05460DE0012070BD00BF22
:1005D000FFF7E0FF401B272805D92068C068800787
:1005E00001D0032070BD2068C0688007F0D1216869
:1005F0004AF6AA200860002070BD00684AF6AA21C9
:1006000001600020704700000248816802781144B0
:100610008160704704000020074810B5016841F070
:1006200010010160032000F075F80F2000F006F8BB
:1006300000F024F8002010BD0020024070B50D4DE0
:1006400004464FF47A712878B1FBF0F00A49096842
:10065000B1FBF0F000F0ECFA48B9102C07D2002200
:100660002146501E00F036F800206C6070BD01205D
:1006700070BD000004000020100000200C4808B5E8
:10068000816941F001018161816901F001010091FD
:10069000C16941F08051C161C06900F08050009093
:1006A0000448416821F0E06141F00071416008BDFB
:1006B0000010024000000140002809DB00F01F028A
:1006C000012191404009800000F1E020C0F80011B4
:1006D00070470000F0B40E4B1B680C46C3F30223B6
:1006E000C3F10705042D00D90425191D072901D2DE
:1006F000002300E0DB1E012606FA05F1491E214019
:1007000099409E40761E16403143F0BC01F0EABB92
:100710000CED00E0064900F0070208684FF6FF0301
:10072000184040EA0220034A104308607047000066
:100730000CED00E00000FA052DE9F0470F4605003A
:1007400061D0434E306800F00700B84209D23068EB
:1007500020F0070038433060306800F00700B842EE
:1007600051D128683B4C810712D5400703D56068FA
:1007700040F4E06060602878000703D5606840F4CA
:10078000605060606068A96820F0F0000843606015
:100790002878C00728D06868012810D0216802286E
:1007A00010D0890700292EDA616821F00301014386
:1007B0006160FFF7EFFE804641F288390DE0216865
:1007C0008903EFE78901EDE7FFF7E4FEA0EB0801FD
:1007D000494502D90320BDE8F0876068696800F0E8
:1007E0000C00B0EB810FEFD1306800F00700B84289
:1007F0000BD9306820F0070038433060306800F0D3
:100800000700B84201D00120E5E72878400705D568
:100810006068E96820F4E0600843606028780007B9
:1008200006D56068296920F4605040EAC100606024
:1008300000F038F86168084AC1F30311515CC84000
:100840000649086006480068FFF7F8FE0020C2E786
:100850000020024000100240E01F000810000020AD
:10086000080000200448054900684968044AC1F3AB
:100870000221515CC8407047100000200010024067
:10088000F01F00080448054900684968044AC1F39C
:10089000C221515CC8407047100000200010024087
:1008A000F01F000812A185B00FC98DE80F0014A039
:1008B000144A006804905168134801F00C03042B9B
:1008C00010D0082B0ED1C1F38343C9031DF80300D8
:1008D0000AD5516804AAC1F34041515C0A4A504309
:1008E000B0FBF1F005B0704708494843FAE7000053
:1008F00002030405060708090A0B0C0D0E0F101061
:10090000010200000010024000127A0000093D00C0
:100910002DE9F84F040070D02078C04DC00749D0B1
:100920006868C0F38100012807D06868C0F38100BF
:10093000022809D16868C00306D52868800339D524
:1009400060680028E7D035E06068B0F5803F0BD0E4
:1009500010B1B0F5A02F11D0286820F480302860A5
:10096000286820F4802002E0286840F48030286065
:10097000606890B1FFF70EFE06460AE0286840F472
:1009800080202860F0E700BFFFF704FE801B64288A
:1009900073D828688003F7D50CE0FFF7FBFD064607
:1009A00005E000BFFFF7F6FD801B6428F0D828683B
:1009B0008003F7D420789A4E80074FF001094FF05A
:1009C000000839D5686810F00C0F07D06868C0F3CC
:1009D0008100022809D16868C00306D4286880070E
:1009E00014D52069012808D110E02069B0B1C6F8FB
:1009F0000090FFF7CFFD074605E00AE1FFF7CAFDCB
:100A0000C01B0228C4D828688007F7D52868616908
:100A100020F0F80040EAC10028600DE0C6F8008030
:100A2000FFF7B8FD074604E0FFF7B4FDC01B02283E
:100A300023D828688007F7D4207800072CD5794878
:100A4000A169D9B1C0F80090FFF7A4FD074604E002
:100A5000FFF7A0FDC01B02280FD8686A8007F7D5F2
:100A600071484FF4FA510068B0FBF1F0009000BFFC
:100A70000098411E0091FAD20EE080E0C0F800809C
:100A8000FFF788FD074604E0FFF784FDC01B02283E
:100A900075D8686A8007F7D42078400760D5E86980
:100AA0000027C00008D4E86940F08050E861E86998
:100AB000012700F0805000905C480168C90513D4FC
:100AC0000168834641F480710160FFF763FD82464F
:100AD00006E000BFFFF75EFDA0EB0A0064284ED8D9
:100AE000DBF80000C005F5D5E06801280AD008B1A0
:100AF000052813D0286A20F001002862286A20F017
:100B0000040002E0286A40F001002862E06841F237
:100B1000883B98B1FFF73EFD82460BE0286A40F023
:100B200004002862EEE700BFFFF734FDA0EB0A01E6
:100B300059455AD8286A8007F6D50CE0FFF72AFDF8
:100B4000824605E0FFF726FDA0EB0A0159454CD887
:100B5000286A8007F6D41FB1E86920F08050E86168
:100B6000E06988B36968C1F38101022944D0022891
:100B7000C6F8608004D0FFF70DFD044638E034E08D
:100B8000FFF708FD074604E0FFF704FDC01B02283D
:100B90002BD828688001F7D4206AB0F5803F05D1B2
:100BA0006868A16820F4003008436860D4E908014F
:100BB0000843696821F4741108436860C6F86090BE
:100BC000FFF7E8FC044606E025E000BFFFF7E2FC83
:100BD000001B022809D828688001F7D51BE000BF58
:100BE000FFF7D8FC001B022802D90320BDE8F88FCC
:100BF00028688001F4D40EE00128F7D06868226AE2
:100C000000F48031914204D1616A00F4701088428E
:100C100001D00120EAE70020E8E7000000100240D0
:100C20000000424280044242100000200070004058
:100C300010B5401EB0F1807F01D3012010BD4FF0F0
:100C4000E02460610F21601701F04CF90020A061E1
:100C500007202061002010BD7047704770B590F8E4
:100C60003C20012A2CD0012480F83C40022280F84C
:100C70003D2003685A689D6822F070060A68324376
:100C80005A60104B02689A420ED00F4B9A420BD01A
:100C9000B2F1804F08D00D4B9A4205D00C4B9A42CE
:100CA00002D00C4B9A4204D1496825F080031943C5
:100CB000916080F83D40002180F83C10084670BDEE
:100CC000022070BD002C01400034014000040040AF
:100CD00000080040000C004010B5040003D094F858
:100CE0003D0010B107E0012010BD002084F83C0059
:100CF000204600F01FF8022084F83D00211D2068E6
:100D000000F094FE012084F8460084F83E0084F848
:100D10003F0084F8400084F8410084F8420084F8E1
:100D2000430084F8440084F8450084F83D00002026
:100D300010BD000008B51A4A01681A4891420ED148
:100D4000816941F4006181618069002200F40060E2
:100D5000009011461920FFF7BDFC19201CE0124A33
:100D6000914208D1C16941F00201C161C06900F03E
:100D70000200009008BD0D4A9142FBD1C16941F0CB
:100D80000401C161C069002200F004000090114616
:100D90001E20FFF79FFC1E20BDE80840FFF78CBC1B
:100DA000002C0140001002400004004000080040F8
:100DB00070B5044690F83C00012817D0012584F84E
:100DC0003C50022084F83D002068826822F07702BF
:100DD00022F47F4282600868502830D00DDC202841
:100DE0004DD005DC98B310283BD148E0022070BDFF
:100DF000302844D0402834D139E0602828D07028E9
:100E000006D0B0F5805F2CD0B0F5005F29D10AE0A4
:100E1000CB68D1E90121206800F04EFE206881688E
:100E200041F0770109E0CB68D1E90121206800F0A9
:100E300043FE2068816841F48041816011E0CA6806
:100E40004968206800F00CFF5021206807E016E098
:100E5000CA684968206800F014FF6021206800F02B
:100E600035FE84F83D50002084F83C0070BDCA680F
:100E70004968206800F0F4FE40212068EFE722680E
:100E800001461046EBE7704770B5044600680169FB
:100E90004FF00005C943890715D4C168C9438907C4
:100EA00011D4E91E01610120207720688069800744
:100EB000204602D0FFF7E7FF04E000F0CBF8204621
:100EC00000F05AF9257720680169C943490717D40A
:100ED000C168C943490713D46FF0040101610220BE
:100EE00020772068806910F4407F204602D0FFF709
:100EF000CAFF04E000F0AEF8204600F03DF9257787
:100F000020680169C943090716D4C168C9430907A4
:100F100012D46FF008010161042020772068C069B5
:100F20008007204602D0FFF7AEFF04E000F092F801
:100F3000204600F021F9257720680169C943C906D8
:100F400017D4C168C943C90613D46FF010010161F9
:100F5000082020772068C06910F4407F204602D026
:100F6000FFF791FF04E000F075F8204600F004F967
:100F7000257720680169C943C90708D1C168C943F9
:100F8000C90704D1891E0161204600F0F6F82068E7
:100F90000169C943090609D4C168C943090605D4D2
:100FA0006FF0800101612046FFF756FE206801695D
:100FB000C943490609D4C168C943490605D46FF03D
:100FC00040010161204600F0D9F820680169C94359
:100FD00089060BD4C168C943890607D46FF0200184
:100FE00001612046BDE87040FFF737BE70BD0000CC
:100FF00000B585B000210091019102910391006834
:10100000104988421BD11048816941F00801816173
:101010008069694600F008000490202000900220BA
:101020000190032003900948FFF7AEF90848416892
:1010300021F4406141F0E06141F40061416005B09C
:1010400000BD00000004004000100240000C014000
:1010500000000140704770B5044690F83C000D4612
:1010600001280AD0012084F83C0042B1042A18D09B
:10107000082A2AD00C2A4DD139E0022070BD206800
:1010800000F02CFD2068816941F008018161206831
:10109000816921F004018161206881692A69114315
:1010A00011E0206800F04AFD2068816941F4006188
:1010B00081612068816921F4806181612068816992
:1010C0002A6941EA0221816124E0206800F06CFD78
:1010D0002068C16941F00801C1612068C16921F03F
:1010E0000401C1612068C1692A69114311E02068C7
:1010F00000F08EFD2068C16941F40061C161206883
:10110000C16921F48061C1612068C1692A6941EA2D
:101110000221C161002084F83C0070BD10B50400BC
:1011200003D094F83D0010B107E0012010BD00206D
:1011300084F83C00204600F01EF8022084F83D00B0
:10114000211D206800F072FC012084F8460084F81C
:101150003E0084F83F0084F8400084F8410084F8A1
:10116000420084F8430084F8440084F8450084F881
:101170003D00002010BD70477047704770477047B2
:1011800070470000F8B5026804461068D1685369DA
:1011900010F00F0F4FF0000553D003F0010601F4DB
:1011A000907737435FD0C20705D0CA0503D5226CBC
:1011B00042F001022264420705D5DA0703D0226C0F
:1011C00042F002022264820705D5DA0703D0226CBE
:1011D00042F004022264020707D501F020023243E4
:1011E00003D0226C42F008022264226C002A34D020
:1011F000800604D5880602D5204600F074FD2068DC
:101200004069216CC0F38010090700D430B3204638
:1012100000F051FD2068416949061BD5416921F064
:1012200040014161A06BA8B158494163A06BFEF732
:10123000F3FF002811D0A06B416B01B0BDE8F04076
:10124000084783060FD58B060DD52046BDE8F8402C
:1012500000F049BD2046FFF793FFF8BD2046FFF799
:101260008FFF2564F8BD266B2023012E52D1C606C0
:1012700050D5CE064ED51068506800905069400693
:101280002AD5A16B086840680004000CEAD0A68D3E
:101290008642E7D9E0858869202818D0D06820F4F4
:1012A0008070D0602068416921F0010141612068AF
:1012B000416921F04001416184F83E302563206896
:1012C000C16821F01001C160A06BFEF781FFA08D05
:1012D000E18D401A81B219E0A08DE18D401A81B2F2
:1012E000E08D0028BED00029BCD0D06820F49070DA
:1012F000D0602068426922F00102426184F83E30E9
:1013000025632068C26822F01002C2602046FFF701
:1013100036FFF8BD05062BD50D0629D594F83D00FE
:101320002128F6D1A068B0F5805F01D12069B0B165
:10133000206A411C2162216800784860E08C401ED0
:101340000004000CE084E4D12068C16821F0800131
:10135000C1602068C16841F04001C160F8BD206AE9
:101360000088C0F308005060206A801C2062E5E716
:101370004006F3D54806F1D5D168204621F040015A
:10138000D16084F83D3000F0FCF8F8BDA71C0008DF
:1013900070B5040004D094F83D00002510B106E0BB
:1013A000012070BD84F83C50204600F023F8242032
:1013B00084F83D002068C16821F40051C1602046D6
:1013C00000F0ECFC2068016921F490410161206883
:1013D000416921F02A0141612068C16841F400514E
:1013E000C1602564202084F83D0084F83E00002080
:1013F00070BD000070B586B0002400940194029482
:1014000003942E4E03682E49022003222D4DB34231
:1014100026D18B6943F480438B618B6903F480434D
:1014200004938B6943F004038B618969039201F093
:10143000040104910102CDE9001069462846FEF737
:10144000A3FF2815CDE90004694628460294FEF75B
:101450009BFF002211462520FFF73CF9252028E0BC
:10146000194EB34227D1CB6943F40033CB61CB692A
:1014700003F4003304938B6943F004038B6189699F
:10148000039201F0040104910421CDE900106946A2
:101490002846FEF779FF0820CDE900046946284672
:1014A0000294FEF771FF002211462620FFF712F981
:1014B0002620FFF701F906B070BD0000003801409A
:1014C0000010024000080140004400407047000046
:1014D0002DE9F843044690F83D001F4616460D4698
:1014E00020284CD1C5B1BEB194F83C00012846D0AB
:1014F000012084F83C004FF00008C4F8408021200F
:1015000084F83D00FFF746F8A6848146E684A0688B
:10151000B0F5805F03D004E00120BDE8F8832069C6
:1015200028B12E465FF0000584F83C800EE00026CE
:10153000FAE78021204600F08DFCA0B9AEB116F884
:10154000010B21684860E08C401EE084E08C4B4633
:101550004FF0000200970028EBD14FF040012046E9
:1015600000F078FC30B10320D7E735F8020BC0F368
:101570000800E6E7202084F83D000020CDE70220A7
:10158000CBE77047FEE700002DE9F0410126304F20
:10159000304D314C012803D02878012801D015E0C6
:1015A0002E7010212046FEF7EBFF90B10821204657
:1015B000FEF7E6FF68B104212046FEF7E1FF40B1E7
:1015C00001213846FEF7DCFF012802D0287820B33D
:1015D0003BE00420FEF7B8FE0020287010212046D2
:1015E000FEF7CEFF80B108212046FEF7C9FF70B19B
:1015F00004212046FEF7C4FF58B101213846FEF70A
:10160000BFFF012807D020E00120BDE8F0810220C3
:10161000FBE70320F9E70420F7E710212046FEF757
:10162000AFFF012811D108212046FEF7A9FF0128AC
:101630000BD104212046FEF7A3FF012805D101218B
:101640003846FEF79DFF00B92E700020DDE7000050
:101650000008014000000020001801400122202164
:101660000148FEF792BF000000180140002220212F
:101670000148FEF78ABF0000001801402DE9F04143
:1016800086B0002000900190029003903A48816952
:1016900041F040018161816901F04001049181695B
:1016A00041F010018161816901F0100104918169AB
:1016B00041F004018161816901F0040104918169B3
:1016C00041F00801816180692C4F00F0080004900E
:1016D000002220213846FEF758FFDFF8A480BE150F
:1016E000002231464046FEF750FF1C20009025485E
:1016F0000124CDE9010469463846FEF745FE202065
:10170000CDE90004022569463846CDE90245FEF7D9
:101710003BFE1D486946CDE9004002951B48FEF797
:1017200033FECDE9006469464046CDE90245FEF747
:101730002BFE002202210620FEF7CCFF0620FEF73A
:10174000BBFF002203210820FEF7C4FF0820FEF79C
:10175000B3FF002204210920FEF7BCFF0920FEF799
:10176000ABFF002205210A20FEF7B4FF0A20FEF796
:10177000A3FF06B0BDE8F081001002400018014050
:10178000000C014000002110000011100008014071
:10179000094810B507490160042141604FF4FA710E
:1017A0008160FEF7FDFE002803D0BDE81040FEF783
:1017B0000DBD10BD003000401800002010B586B0EF
:1017C000002418480094019402940394049414494A
:1017D0000594016048F69F41C0E901144FF47A7105
:1017E000C0E903148021C0E90541FFF775FA08B18B
:1017F000FEF7ECFC4FF48050009069460948FFF773
:10180000D7FA08B1FEF7E2FC049404A90548059450
:10181000FFF724FA002801D0FEF7D8FC06B010BD6F
:10182000002C01402400002010B58EB00024079445
:10183000089409940A940B941C2168460C94FEF7B2
:101840009AFC1F481D4901604721C0E9011440F27C
:10185000F311C0E903148461FFF73EFA08B1FEF703
:10186000B5FC4FF48050079007A91548FFF7A0FA80
:1018700008B1FEF7ABFC1248FFF750FC08B1FEF7C9
:10188000A5FC0B940BA90E480C94FFF7E7F908B1DF
:10189000FEF79CFC6020CDE90004022002900422A7
:1018A000694604940648FFF7D6FB08B1FEF78EFCA4
:1018B0000348FFF79DFB0EB010BD00000004004080
:1018C0006C00002010B586B00024184800940194E4
:1018D00002940394049414490594016041F61F4155
:1018E000C0E9011441F28731C0E90314802181610C
:1018F000FFF7F2F908B1FEF769FC4FF48050009051
:1019000069460A48FFF754FA08B1FEF75FFC0494F1
:1019100004A906480594FFF7A1F9002801D0FEF7B5
:1019200055FC06B010BD000000080040B4000020C7
:101930000C4810B50A4901604FF4E13141600021C3
:1019400081600C22C160C0E904128161C161FFF7AE
:101950001FFD002803D0BDE81040FEF737BC10BDC6
:1019600000380140FC0000200C4810B50A49016015
:101970004FF4E1314160002181600C22C160C0E977
:1019800004128161C161FFF703FD002803D0BDE8A7
:101990001040FEF71BBC10BD004400404001002079
:1019A000FEE7FEE770477047FEF72EBE30B58FB0FA
:1019B00028216846FEF7DFFB14210AA8FEF7DBFBAF
:1019C0000920012100904FF48030002404910691F9
:1019D000CDE901040225CDE907504FF4E01009904C
:1019E0006846FEF795FF08B172B6FEE70F20CDE915
:1019F0000A054FF48060CDE90C4002210AA80E943C
:101A0000FEF79AFE002801D072B6FEE70FB030BD97
:101A1000704700000148FFF737BA0000240000209B
:101A20000148FFF731BA0000B4000020F0B50268A9
:101A30001C4B1D4D1D4E1E4F1E4C4FF0804C9842AE
:101A400009D0A04207D0604505D0A84203D0B042DB
:101A500001D0B84204D122F0700E4A6842EA0E0268
:101A6000984209D0A04207D0604505D0A84203D0D3
:101A7000B04201D0B84203D122F44075CA682A436B
:101A80004D6922F080022A4302608A68C2620A68B5
:101A90008262984201D0A04201D10969016301210B
:101AA0004161F0BD002C01400004004000080040EE
:101AB000000C00400034014010B5846842EA032263
:101AC00024F47F440A432243826010BD826822F0DE
:101AD00070020A4342F0070181607047F0B5026A64
:101AE00022F001020262036A42688469124E24F005
:101AF00073050C682C4323F002058B682B430D4DB6
:101B0000A84201D0B04205D123F00807CB683B437F
:101B100023F00403A84201D0B04205D14D6922F45C
:101B2000407215438A692A4342608461496841636F
:101B30000362F0BD002C014000340140F0B5026AA0
:101B400022F010020262026A436884690D6824F47C
:101B5000E64444EA05248D6822F0200242EA051298
:101B60000F4D104EA84201D0B04206D1CF6822F0EE
:101B7000800242EA071222F04002A84201D0B0429D
:101B800007D14D6923F4406343EA85038D6943EA35
:101B9000850343608461496881630262F0BD00008F
:101BA000002C014000340140F0B5026A22F480723A
:101BB0000262026A4368C46922F4007224F0730569
:101BC0000C68124E2C438D6842EA05220E4DA84245
:101BD00001D0B04206D1CF6822F4006242EA072267
:101BE00022F48062A84201D0B04207D14D6923F4AB
:101BF000405343EA05138D6943EA05134360C4610A
:101C00004968C1630262F0BD002C0140003401400C
:101C100030B5026A22F480520262046A4268C369E3
:101C20000D6823F4E64343EA05238D6824F4005449
:101C300044EA0534084DA84202D0084DA84204D118
:101C40004D6922F4804242EA85124260C3614968CC
:101C50000164046230BD0000002C014000340140EA
:101C600010B5036A046A24F001040462846924F054
:101C7000F00444EA021423F00A020A438461026277
:101C800010BD10B5036A23F0100303628369046A70
:101C900023F4704343EA023224F0A00343EA011123
:101CA0008261016210BD10B5406A0021C185C18406
:101CB000FFF766FA10BD0168CA6822F49072CA6024
:101CC00001684A6922F001024A61016B012904D1CD
:101CD0000168CA6822F01002CA60202180F83E1014
:101CE00000210163704708B590F83E10222901D009
:101CF000022008BD82684FF480539A4201D10169E5
:101D000021B1816A9A421BD04AB10AE00268816A15
:101D10005268C2F308020A80816A891C08E00269DD
:101D200072B10268526802F07F020A70816A491C2F
:101D30008162C18D491E0904090CC18503D019E0D7
:101D400002685268F1E70168CA6822F02002CA609E
:101D50000168CA6822F48072CA6001684A6922F088
:101D600001024A61202180F83E10016B012903D055
:101D7000FFF7ACFB002008BD002101630168CA68C1
:101D800022F01002CA6001680A68D20602D50A6809
:101D900049680091818DFFF7F2F9EBE770B50446D1
:101DA00000680169E26821F4405111430161216931
:101DB000A0680843616908432168CA6841F20C635E
:101DC0009A430243CA6020684169A26921F44071C4
:101DD000114341611E492068884202D1FEF752FD3D
:101DE00001E0FEF73FFD00EBC00101EB001260686F
:101DF00064218000B2FBF0F3B3FBF1F36FF018063F
:101E00007343B2FBF0F5B2FBF0F605EB830532232A
:101E100003EB0515B5FBF1F5B6FBF1F605F0F005A2
:101E200005EB0615B2FBF0F6B2FBF0F0B0FBF1F0FB
:101E30006FF01802504306EB800003EB0010B0FB7C
:101E4000F1F0216800F00F002844886070BD0000A8
:101E5000003801402DE9F041984617460E460446E9
:101E6000069D1DE0681C1BD02DB1FEF793FBA0EB77
:101E70000800A84214D92068C16821F4D071C1605B
:101E80002068416921F001014161202084F83D0072
:101E900084F83E00002084F83C000320BDE8F08177
:101EA0002068006836EA000004D00020B842D9D08B
:101EB0000020F3E70120F9E70148FFF763B90000CC
:101EC000FC0000200148FFF75DB900004001002040
:101ED000FEE70000014A024900F023B8451F000850
:101EE000140000200907090E002804DB00F1E0209F
:101EF00080F80014704700F00F0000F1E02080F837
:101F0000141D704702E008C8121F08C1002AFAD148
:101F100070477047002001E001C1121F002AFBD169
:101F200070472DE9F04116460F460446002503E0B0
:101F30003946B047641C6D1C20780028F8D128462B
:101F4000BDE8F08113B54FF6FF73012269460248E0
:101F5000FFF7BEFA00981CBDFC000020FEF75CFBFA
:101F6000FFF724FDFFF78AFBFFF7FEFCFFF7E0FC1D
:101F7000FFF7A8FCFFF722FCFFF756FCFFF708FC71
:101F8000FFF76CFB09A0FFF7A5FF0020FFF7FCFAA5
:101F90000428FAD10B48FEF730FBFFF767FB0AA0D5
:101FA000FFF798FF0A20FEF7CFF9EEE75B4C4F47AB
:101FB0005D3A52657365742053797374656D0D0ACB
:101FC00000000000180000205B4C4F475D3A46655A
:101FD00065642074686520446F67210D0A00000065
:101FE00000000000000000000102030406070809C9
:101FF0000000000001020304182000080000002077
:1020000018000000041F00083020000818000020FD
:1020100070050000141F000801000000010000000E
:1020200010000000000000000024F4000000000088
:0400000508000131BD
:00000001FF
